:1020000000800020AD200000A9200000A9200000D1
:1020100000000000000000000000000000000000C0
:10202000000000000000000000000000A9200000E7
:102030000000000000000000A9200000A92000000E
:10204000B5A90000A92000008DA90000FD25000011
:10205000A920000011490000A9200000A9200000CB
:10206000A920000011130100A9200000A9200000F0
:10207000ABBF0000A9200000A9200000A92000009B
:10208000A1BB0000A9200000A9200000A920000099
:10209000A9200000A9200000A9200000A92000001C
:1020A000A9200000A9200000FEE7FFFF10B50A4AA2
:1020B0000A4B0B498B420AD300210A4B0A4A93422E
:1020C00008D30A4B0A4A936000F036FFFEE701CAC4
:1020D00001C3EFE702C3F2E7A8810200000000207D
:1020E000780A0020780A00209421002000200000B7
:1020F00000ED00E0FEE7FFFF06220C4B1A750C4BCB
:102100000C4A1A6001220C4B9A7192189A709A79B3
:10211000002AFCD0094B0A4A0A499A620A4A91826B
:1021200004211174094ADA627047C0460010004069
:10213000780A002000127A0000040040001C0040D1
:1021400003210100DE0300000014004004212000F0
:1021500080220021114B52009A601983D9681142E4
:10216000FCD080210E4A89001268920E92020A4326
:10217000DA61922252001A830A4A1A6280225200BD
:10218000D9681142FCD00222198B0A431A83064AED
:10219000064B536253681B07FCD470470010004085
:1021A0002060800080BB0104001C00400603010089
:1021B000014B18687047C046780A0020154B9842BA
:1021C00021D007D8144B98420CD0144B98420FD012
:1021D00000207047124B9842FAD10C23114A117D0E
:1021E0000B4303E00C210F4A137D8B43137506E06C
:1021F0000C230C490A7D9A43083B13430B750A4B89
:1022000018600120E5E70C2306490A7D9A43043B48
:10221000F3E7C046001BB70000093D0000127A003A
:102220000024F40000100040780A00200723074A29
:1022300051789943033B0B43537053785B075B0F13
:10224000042BFAD1BFF34F8F30BF7047000400401A
:10225000F8B5040E070026000E4D002E0AD1230605
:10226000E41AE4196C60AC60802464022B68234299
:102270000DD0F8BD084B013E6B60F6B2AB6080221A
:102280002B6852021342E7D110F0A0FFF7E710F0DD
:102290009DFFEBE710E000E0FFFFFF00024B034A69
:1022A0005A6005221A60704710E000E0FFFFFF004F
:1022B00010B50400FFF77CFF084B984208DC084982
:1022C00014F092FC44430A206043FFF7C1FF10BDA5
:1022D000044914F089FC44436420F5E77F96980094
:1022E00010270000A0860100024A138C002BFCD1AD
:1022F0007047C0460030004210B50C4C2389DB0605
:10230000DB0E834207D01F222389104093430343EF
:102310002381FFF7E9FF0223227E13432376A3796B
:10232000DB07FCD5A08C80B210BDC0460030004257
:102330001F214209064B520108409B181B560020E2
:1023400010B5834202DBD8B2FFF7D6FF10BDC046FE
:10235000A44702008023244A5B01D16970B50B4376
:10236000D3614022214B224C1A6023789B0705D56C
:1023700023783E3A93432370FFF7B6FF0125237875
:102380002B432370FFF7B0FF07210323E02062787F
:10239000C0008A4313436370164B1B681A02DB08A4
:1023A00002400B401343A385FFF79EFF0F21052337
:1023B000A2788A431343A370302362899A43203B57
:1023C0001343638122890C4B1A40C0235B011343E2
:1023D00023810423227B8A4313433F222373637B9D
:1023E00093436373657170BD00080040E41C0040B6
:1023F0000030004220608000FFE0FFFF0223054A1A
:1024000010B511780B431370FFF76EFF1A20FFF71A
:1024100073FF10BD00300042024B18788007C00FD8
:102420007047C046003000420221064A10B51378BA
:102430008B431370FFF758FF034A0449D3690B40DD
:10244000D36110BD0030004200080040FFEFFFFFE5
:10245000024A5368002BFCD17047C0460028004058
:1024600080230C4ADB00516910B50B4353610222F3
:10247000094C237893432370FFF7EAFF0123227866
:1024800013432370FFF7E4FF1023227813432370D4
:1024900010BDC04600080040002800400223074A43
:1024A00010B511780B431370FFF7D2FFC02108223B
:1024B000034B49005A501A6010BDC0460028004026
:1024C00000E100E0F0B51F2587B02D4B44090592CF
:1024D000620105409B185E5701900491002E4CDB71
:1024E0000123072E00DC0023DBB20393072302271E
:1024F000244A33409B0002931378E401BB431370DA
:10250000FFF7A6FF01221300AB401F4964186519AD
:10251000636040352B781F432F702B7813432B704B
:10252000019B59100F23194064180199303411424E
:102530001FD0227813402370039B02989A00114BFE
:10254000D2180F238340D1699943049B83400B43E6
:102550000599002902D0082181400B43D361022351
:1025600008490A7813430B70FFF772FF300007B079
:10257000F0BD22789A432270DEE701267642F5E725
:102580000448020000280040006000411F21F8B507
:1025900042090C4B520108409B181E5600208642EF
:1025A0000FDB0227084D2B78BB432B70FFF750FF42
:1025B0000123B3402B612B781F432F70FFF748FF97
:1025C0000120F8BD04480200002800400221064A0C
:1025D00013788B4313700822044B191DCA67C0215E
:1025E00049005A507047C0460028004000E100E012
:1025F000014B18607047C0467C0A0020064B70B53E
:10260000064C1D686069002D03D014F06FFCC0B249
:10261000A847034B636170BD7C0A0020002800407E
:10262000FFFF000010B5012000F038F910BDFFFFDA
:102630000C224243224B70B5D4580D0000F004F92F
:102640000222236893432360E3699B07FCD40123A0
:10265000226813432360E369DB07FCD4E3699B072B
:10266000F9D40123226813432360E369DB07FCD418
:102670002368DB07F9D414232360EC336360E36938
:102680005B07FCD4FFF794FD6900060014F022FA02
:102690000C49451F300014F01DFA9623FA215B0007
:1026A0005843C90014F016FAFF23281AE5681840A9
:1026B0009D430543E560E3695B07FCD470BDC046FC
:1026C0003047020040420F0010B501200149FFF7DA
:1026D000AFFF10BDA086010010B5040000F0D0F8D7
:1026E0000C2030226043054BC358598B9143203A4C
:1026F0000A435A83DA695207FCD410BD30470200FE
:1027000010B50120FFF7E8FF10BDFFFF30B50C2525
:102710004543204C2C59608B8006800F032833D012
:10272000606A4900C00AC00208431B496062207EFB
:10273000C00702D401390029F9D1618B8906890FBC
:10274000022921D1618B490721D42000D3182830D8
:102750009A4209D1C02362689B0213436360E06917
:102760004007FCD4C00F30BD11780170217EC9072D
:1027700005D5618B01324907EAD5042005E0618B5C
:10278000C907F3D5032000E002204042EBE7012017
:10279000FBE7C04630470200A086010010B51300D9
:1027A0000A0001000120FFF7B1FF10BD30B50C2574
:1027B00045431E4C2C59608B8006800F032830D077
:1027C00001204D00616A2843C90AC90201436162C0
:1027D00061681748014061601649207E800702D475
:1027E00001390029F9D1618B8906890F022918D195
:1027F000618B490718D42000D31828309A4209D198
:10280000E0236268DB0213436360E0694007FCD4A5
:10281000C00F30BD01781170217E8907FCD50132CF
:10282000ECE702204042F4E70120FBE730470200DA
:10283000FFFFFBFFA086010010B513000A00010096
:102840000120FFF7B3FF10BD0C224243094B0A4998
:102850009A18137A526810B5CC69D2B22243CA6171
:102860004021064A20339B0099505368002BFCD12D
:1028700010BDC0463047020000080040001C004068
:102880000C224243044BD358022219680A431A60AF
:10289000DA699207FCD47047304702000C2202210B
:1028A0004243044BD3581A688A431A60DA69920784
:1028B000FCD4704730470200024A53691842FCD1E9
:1028C0007047C046003C0042F0B50700012085B0CB
:1028D00003930BAB1B780E00019322490CAB1D78C0
:1028E0000AAB02921A784B7C0240834313434B7429
:1028F00080231D4A1B02D1691C4C0B43D361236802
:102900009B0705D52368001883432360FFF7D4FF96
:10291000012023682D0303432360FFF7CDFFC0226E
:10292000029B92021B041340E022D2011540C022F8
:102930001D43019B92001B0213401C221D43039B5D
:10294000E7619B0013401D43094B26622B43236024
:102950008123A380013B04202372FFF7ADFF05B064
:10296000F0BDC0460014004000080040003C00429A
:1029700040003005FF2300011840014BD88070470C
:10298000003C0042022010B5034A13680343136061
:10299000FFF792FF10BDC046003C00420022094BE9
:1029A0005A62DA625A63DA635A64DA645A65DA653B
:1029B0009A621A639A631A649A641A659A651A6627
:1029C0007047C046003C004230B501254B099D4090
:1029D0004000C018054A800080182B0004681F2999
:1029E00001D801238B402343036030BD243C0042C7
:1029F00030B501254A0995404000064B80188000FB
:102A0000C0182A0003681F2901D801228A40934375
:102A1000036030BD243C004201280CD0022812D0B3
:102A2000002807D1012353401F22DB010A40134332
:102A3000094A137670471F2350400B40C0011843CA
:102A4000054B5876F6E7012353401F22DB01114066
:102A5000014A0B439376EDE7003C004210B5012894
:102A600010D0022817D0002808D101220A401021D6
:102A70000D481201037A8B43134303720420FFF7BE
:102A80001BFF10BD08402021074A4001137A8B43E9
:102A900003431372F2E70120034A0140137A3F30E7
:102AA000890183430B43F4E7003C004270B50326E1
:102AB0000F4C3340A56EB6195B00B5431D43A566A8
:102AC0000123002803D0A26E9A43A26670BDA06EB7
:102AD00009020343A366A36E0648120403400B4396
:102AE000A366A36E04490B401343A366EEE7C046FA
:102AF000003C0042FF00FFFFFFFF00FF01210840F4
:102B00008840054A10B5137A49188B430343137262
:102B10000420FFF7D1FE10BD003C004270B5032633
:102B20000E4C3340E56EB619B5435B001D43E566B8
:102B30000F25E36E2940E135AB4309010B43012129
:102B4000E366E36E0A408B431343E366E36E044A95
:102B5000000213400343E36670BDC046003C0042E0
:102B6000FF0000FF012202400420054910B50B7A46
:102B70009200834313430B72FFF79EFE10BDC046C5
:102B8000003C0042022010B5034A136883431360DF
:102B9000FFF792FE10BDC046003C0042054A064BBE
:102BA0001278821A0C205043C2581369002BFCD1B2
:102BB0007047C0467047020074470200F8B5174BD3
:102BC00016001D78164B451B1A780023954222DA11
:102BD0000C246C43134AA5582B1E1CD0124F1219FB
:102BE000FB6954682343FB610727137A40220124C1
:102BF0003940114320330D4A9B0099502B683E40C9
:102C000023432B60FFF7CAFF2A68094B36021A409C
:102C1000230032432A601800F8BDC0467047020006
:102C2000714702007447020000080040001C004089
:102C3000FFF8FFFF074A10B512780324801A0C2210
:102C40005043054B2140C0588900036893430B4310
:102C5000036010BD7047020074470200074A084B2A
:102C60001278821A0C205043C25801201368014088
:102C70003F30890183430B43136070477047020064
:102C800074470200074A084B11780C22411A4A4344
:102C9000D258022310B511680B431360FFF77EFF73
:102CA00010BDC0467047020074470200044A054B3D
:102CB0001278821A0C205043C358D9767047C04608
:102CC0007047020074470200074A10B511780C22C1
:102CD000411A4A430221054BD25813688B431360B3
:102CE000FFF75CFF10BDC04670470200744702004A
:102CF0000C224243024BD2589368002BFCD1704700
:102D000064470200F7B5154B16001B7800240191AB
:102D1000834221D9124F0C34FB6944431900114AF4
:102D200015196B681943F96107272B7A402501991A
:102D30002033394029430C4D9B005951A55801249B
:102D40002B683E4023432B60FFF7D2FF2A68074BD6
:102D500036021A4032432A602000FEBD604702005E
:102D60000008004064470200001C0040FFF8FFFF1D
:102D70000C2242430120054B0140D25804481368FD
:102D8000C90203400B4313607047C046644702000A
:102D9000FFF7FFFF0C2242430720044B0140D258AB
:102DA000D36B83430B43D3637047C0466447020031
:102DB00010B50C244443074B1031E05801238B40DD
:102DC000012A03D182691343836110BD82699A434A
:102DD0008261FAE7644702000C224243044B10B5BB
:102DE000D258022311680B431360FFF781FF10BD17
:102DF000644702000C224243024BD35818688007F4
:102E0000C00F70476447020010B50C2444430A4BBE
:102E10000902E458002A08D0E36E090A1B0E1B06BB
:102E20000B43E366FFF764FF10BD236C090A1B0E1A
:102E30001B060B432364F5E7644702000C22424360
:102E4000024BD358186C0002000A70476447020016
:102E500070B50C2646430D4C15023459002B0AD090
:102E60001C3189000A592D0A120E12062A430A51F2
:102E7000FFF73EFF70BD10318B00E3185A682D0A32
:102E8000120E12062A435A60F2E7C0466447020057
:102E90000C220221424310B5034BD25813688B43D6
:102EA0001360FFF725FF10BD644702000C22424368
:102EB00030B51B4BD258157E6B0712D5538B194971
:102EC000148D53830B6818480133034003D517480A
:102ED000013B03430133486883421AD10121144B5B
:102EE000197001231D4213D012494C6808688442AE
:102EF00014D04B680C4CCB18187A4B68C0B2013315
:102F0000234003D5094C013B234301334B6010851B
:102F100030BD0868081804720B60E2E71375F7E724
:102F2000304702008C0B0020FF00008000FFFFFFF5
:102F3000800A0020840A002010B5FFF7DDF8FFF7B3
:102F4000ADF910F073FD10F055FE10F055FE10F0C5
:102F50000FFF0028FBD0FFF769F9F8E710B5002054
:102F600000F068FB10BD02780300D207D00F002AE2
:102F700010D11A7852070CD41978C907C80F002944
:102F80000AD11A78520704D40422012019780A437E
:102F90001A7070470020FCE7D00FFAE702780300B0
:102FA0005207D00F002A06DA1A78D20704D4042177
:102FB0001A788A431A7070470020FCE74379027937
:102FC0001B021343C2785B0592075B0D920F022A26
:102FD0000DD00020032A16D0012A13D102394A420B
:102FE00051410D4A891899424041C0B20AE09142CC
:102FF00004D10A4A981843425841F6E7002040227B
:103000009A42404170474022022901D18022D200D9
:103010009A424041E9E7C046FF03000000FEFFFF7F
:1030200070B57F268A18914200D370BD4C78052C6C
:1030300006D18D782C0034406400ED0904196355E5
:103040000C780919EFE78A1892B24000914201D832
:10305000824201DB121A92B21000704770B5040070
:103060000800D11AA58889B29A4202D26E00891945
:1030700089B20E1E11D08D4204D295420FD8521B38
:1030800093B263819D420CD9E28821685204520CAC
:103090005343C91819F056FB0126300070BDAA1819
:1030A000EEE75B1B9BB2EDE7F7B506009008030067
:1030B0000C00002B0ED1032415002540224208D01D
:1030C000800009182A0001A8019319F03BFB019B1D
:1030D0003360F7BD657827782D023D43A778013B23
:1030E0003F042F43E5789BB22D063D433560043401
:1030F000DFE7F0B5060089B00D000EA908880FA91A
:1031000009781C1A8C46A4B2B188834202D24F00BF
:10311000E419A4B2002C2AD0A14205D2994229D8A0
:103120005B1A0C0098B27081231C944200D9131CC6
:103130009CB2814220D9F2880B1A5204520C17001B
:103140009BB2611A41185F4351435043BFB201978C
:103150008FB231680291091803916146012918D094
:103160009C420CD828006243039919F0EBFA200026
:1031700009B0F0BDCB18D4E7401A80B2D9E7019A64
:103180000399280019F0DEFA019B3A003168E8182B
:10319000EBE79C4206D86243039992B22800FFF7FE
:1031A00083FFE4E70326019B2800B3431A00039939
:1031B0000493FFF779FF019B33400593019B334252
:1031C00021D0049B0399059AC91804239B1A181C43
:1031D0009BB2BB4200D9381C002280B23F1ABFB25A
:1031E000079207AB8E5CD654059E0132B242F9D1EC
:1031F00002999B181A18C91A934209D1029B1B18ED
:103200000293079B2B60002FB1D03A000299C5E7CB
:10321000CE5C1E700133EFE7F7B59608350003006A
:10322000002D0DD1032314001C401A4207D00B6857
:10323000B6002200801901A9019319F083FAF7BDA5
:103240000C68013D270A1C705F70270C240E9F70CC
:10325000DC70ADB20433E3E7F0B5040087B003934C
:1032600000910089E37967891600A58880B2BFB212
:103270001B0637D4C31BB84202D26B00DB1BC3183A
:103280009BB2AB4200D3A6E0EB1A1A1C9BB2B3422E
:1032900000D9321C96B207003B00AB4245D2E2880F
:1032A000E91A5204520C100089B2751B5D1948438B
:1032B0005543534380B20290A8B225680190ED189F
:1032C000039B012B3FD0B14232D3280072430099B7
:1032D00019F038FA32003900A088FFF7B4FE350043
:1032E00020810EE0AA420FD3039B002B07D1E38875
:1032F000561B5B045B0C7343009AD31800932E1E7D
:10330000CAD1280007B0F0BD6A00C31BB84201D281
:10331000D31BC3189BB29B199342BCDBAA1B390079
:10332000280092B2FFF78FFEB5E75B1B9BB2B4E7B4
:10333000029A0099280019F005FA0099029B20686A
:10334000019AC918C4E7B14206D328007243009914
:1033500092B2FFF761FFBDE70323029A00999A43F7
:1033600028000392FFF758FF03230299029A19409D
:103370001A422ED0039B0198ED1804235B1A1A1CE5
:103380009BB2834201D96B469A8893B29C466246AF
:10339000019B9B1A00229BB20193009B1B68059323
:1033A00005ABD05CA85401328A42FAD19B18624620
:1033B0002068D518C21A9D4207D16044019B002B9A
:1033C00000D187E71A000099C3E71978D154013377
:1033D000F1E72068F2E7002593E770B58026040046
:1033E00004A8057836020020B24209D85B04ED0338
:1033F0005B0C1D43608121602081A280E58001304B
:1034000070BD10B5048941898288A3B288B28C420C
:1034100007D31B1A9BB2101C9A4200D9181C80B209
:1034200010BD5100091A5B18F4E703894089181A86
:1034300043425841C0B2704710B50489428981881F
:10344000A3B290B2944205D31B1A00209BB28B42C8
:10345000404110BD4A00121A9B18F6E710B50489C6
:1034600041898288A3B288B28C4207D31B1A9BB2CF
:1034700000209A4201D9D21A90B210BD5100091A07
:103480005B18F4E770B50289438992B29BB20400DD
:10349000FFF7E4FD050061892A00A08889B2FFF7E3
:1034A000D2FD6081280070BD37B504000025038976
:1034B00040899BB2019500902000FFF71AFE05009D
:1034C00061892A00A08889B2FFF7BDFD60812800CC
:1034D0003EBD70B5058904000E00ADB2FFF7ACFF2C
:1034E000002804D0E3791B06D80F002B13DA28003C
:1034F000A388834210D9E28823685204520C5043B7
:103500003100181819F01EF901222900A088FFF7D0
:103510009AFD2081012070BDC01A80B2E9E710B584
:10352000002A03D00023FFF797FE0200100010BD11
:10353000002343810381012070477F22CB01C179A1
:1035400011401943C17101207047FFFF0A4A03006F
:10355000002A0BD0094A1278824205D9182208495C
:1035600053430868C0187047831ADBB25A4253416C
:1035700004485B421840F6E700000000580D0020A8
:103580005C0D00206448020070B505000C001600B8
:10359000C86800F0DDFC320028000121E36898478C
:1035A00070BDFFFF70B5050000240F4B1B78A342D0
:1035B0000FD2332200210D4818F0B8FE1022FF214F
:1035C0000B4818F0B3FE1022FF210A4818F0AEFE97
:1035D00070BD2000FFF7BAFF0028F9D0436801341E
:1035E00028009847E4B2E0E7580D0020600D002065
:1035F000630D0020730D002010B5054A03001078FC
:10360000002B02D000F060FF10BD00F063FFFBE76D
:1036100010000020024B5878431E9841C0B27047FA
:10362000600D0020024B18784007C00F7047C0465D
:10363000600D0020F8B5184E05003378FF2B1ED121
:1036400033220021154818F071FE1548FFF770FF6E
:10365000144B154A154F1A60154B002B04D0380037
:1036600000E000BF134B186000243B78A34208D24F
:103670002800357000F0E0FE280000F025FF012052
:10368000F8BD2000FFF762FF0028F9D0036801347D
:103690009847E4B2E9E7C04610000020600D002022
:1036A00004000020940C002000000020580D002091
:1036B000000000005C0D00207FB5050040780C0084
:1036C000023803281AD813F0E7F902621128012101
:1036D000304B1A788A431A701A7849188A431A703C
:1036E00000225A7004211A788A4306E0294B1A787E
:1036F000D20716D5042219780A431A70264B1E6881
:10370000002C02D12000336898472900301DFFF7B4
:10371000E0FE002C05D1336836E01E4B1A78D20744
:10372000E0D47FBD3000FFF711FF002805D04369CA
:10373000002B02D02878696898470136F6B2174BFB
:103740001B78B342EED2134B1A785207E9D5042105
:103750001A7801AE8A431A706B460A22981D00211E
:1037600018F0E4FD2B783370052373700A4B1D6845
:10377000002C02D120002B6898473100281DFFF74C
:10378000A8FE002CCDD12B6801209847C9E7002660
:10379000D5E7C046600D0020940C0020580D002095
:1037A000782270B58B780C001A4201D0002070BDD1
:1037B000064B20001D78064B9978FFF7FFFB002889
:1037C000F4D02100280000F0ADFEF0E7100000204A
:1037D000600D0020F7B50C0016001F0000250190B9
:1037E000AE4201DC012003E06378052B01D000200C
:1037F000FEBDE3789B079B0FBB42F8D121000198E7
:10380000FFF7CEFF0028F2D0A378DA09012A05D10C
:10381000099A137023780135E418E1E7089AF8E76C
:103820007F2010B50840C909044B233140004018DF
:10383000C0180021FFF797FB10BDC046600D0020A7
:103840007F2010B50840C909044B233140004018BF
:10385000C0180021FFF7A2FB10BDC046600D00207C
:1038600070B57F240E480C4064000419CD0964191A
:103870000434E07FC00710D40125E67F09482E43B9
:103880000078E67700F09AFE031E07D10422E37F5A
:10389000AB43E377E37F9343E3770023180070BDE6
:1038A000600D0020100000207F2210B50B4B0A4055
:1038B00052009C18C80924180434E37F9B070BD4DA
:1038C000074B187800F0D2FE0223E27F1343E37720
:1038D0000123E27F1343E37710BDC046600D002053
:1038E000100000207F2210B50B4B0A4052009C189C
:1038F000C80924180434E37F9B070BD5074B1878BD
:1039000000F0C2FE0222E37F9343E377E37F013AB4
:103910009343E37710BDC046600D002010000020E7
:103920007F22054B0A405200C9099B185B180433DB
:10393000D87F8007C00F7047600D0020F0B5BF4BE7
:103940008BB01B78FF2B00D17EE2BD4B00201E68A0
:1039500007AC350008CD984728002100FFF792FDFD
:103960003368050001209847002D00D16CE2607893
:1039700001380728E9D813F099F808001100E8FF8A
:10398000450254021C001F0260022078FFF70AFE65
:1039900000F0D4FAAB4B22799A70D6E72078FFF783
:1039A00001FE00F0CBFAA84B002BCED000E000BF08
:1039B000CBE701270421A34D00202B7826783B4339
:1039C0002B702B1DDA7FBA43DA77DA7F8A43DA77F6
:1039D0006B1DDA7FBA43DA77DA7F8A43DA7700F051
:1039E000B7FA602223791A400192602A28D0402A2F
:1039F0000CD19648002823D000F0AAFA39003000F4
:103A000008AA00E000BF00289FD119E0DB06DB0E0A
:103A10000093012B00D159E1022B00D180E1002B52
:103A20000ED1019B202B15D1227A0F2A08D8237A98
:103A3000EB18D878FFF78AFD08AA011E00D087E1AD
:103A400007AC2078002100F011FE8021207800F0E2
:103A50000DFE7AE7019B002BF2D160790928EFD89F
:103A600013F024F829012101EEFF1801EEFF0A00EE
:103A7000B600EEFF1600200008A800F06FFA300034
:103A8000A17900F0E7FD02232A7813432B705CE74D
:103A900006AA6B78023213700123300008A900F0E7
:103AA00025FA52E7A37900936B78009A9A4235D0B1
:103AB0006B78002B07D0300000F07EFDAC78300032
:103AC000FFF770FDAC70009B002B27D0581EC0B2D2
:103AD00008F074FA0028B3D043780393022BAFD1D7
:103AE00001210400C2790934931152110B400A409C
:103AF00012015B0113432A782F318A4313432B7041
:103B0000C37882781B021343C3180493049BA34217
:103B10000CD84F4B002B01D000E000BF494B009A5E
:103B20005A70300008A900F0CFF90EE7012263783F
:103B300001920B2B03D1E37801932378E418637887
:103B4000042B00D07CE70027049B1B1B9BB2059332
:103B5000404B1B78BB4200D272E73800FFF7F6FCFF
:103B6000051E00D16CE7836821003000059A984754
:103B70000290082829D9059B834226D3019B012B5B
:103B800005D1354BAA689A4201D1039B01930022CB
:103B90002C49019B9A420CD13B0021002F48029AEC
:103BA000FFF73EFA029BE4182A4B1B78BB42ADD2CA
:103BB00046E7A378D318DBB2CB18D878FF2800D01B
:103BC0003EE70132DF70D2B2E3E70137FFB2BFE771
:103BD000E3881A0A501EDBB20E2800D930E712F033
:103BE00065FF0F00260049002FFF2FFF520026001F
:103BF0002FFF2FFF2FFF2FFF2FFF2FFF2FFF18006B
:103C000008F0D8F912230200300008A900F06EF97C
:103C1000F9E6134B002B00D112E700E000BF021EB3
:103C200000D10DE7C37881781B020B43ECE7022A31
:103C300018D1180008F0C2F9F1E7C04610000020C2
:103C4000940C0020600D0020000000000000000027
:103C500000000000580D0020D9410000730D002025
:103C600000000000794A002A00D1E9E6180000E0CF
:103C700000BFD4E71800218908F0A4F9021E00D182
:103C8000DEE60378C0E7724B002B00D1D8E600E0F7
:103C900000BFF3E7E388012B00D0D1E62A78073391
:103CA00013432B703DE7E388012B00D0C8E60822C0
:103CB0002B789343F5E72B7806AA980699080223F8
:103CC000C00F1940023201431180E6E6227A0F2A22
:103CD00000D9B5E6237AEB18D878FFF737FC011E38
:103CE00000D1ADE6300008AAFFF74EFC002800D056
:103CF0002BE66025602223791D401A4200D09FE602
:103D000063790A3B012B00D99AE6280000F020F9DC
:103D100063790A2B00D004E706AB9A1C1570BBE64A
:103D20007822237ADFB21A4200D089E67F233B4013
:103D30005B00FA09EB189B18D87CFFF707FC019B86
:103D40000290002B08D0002800D179E6010008AAD3
:103D50003000FFF719FC56E6637900991A008A4390
:103D6000012A0BD0002B00D06AE639003000FFF7A3
:103D7000D7FD06AB9A1C1080009B8EE6E288002AD5
:103D800005D139003000012B13D1FFF7ABFD029BA9
:103D9000002B00D1D9E5190008AA3000FFF7F4FB89
:103DA0000535002000F0D4F8EB7FDB0700D5CCE52B
:103DB000B7E6FFF779FDEAE77F2201262579254B53
:103DC0002A405000E9091B185B18191DC87FB04331
:103DD000C877C87F0336B043C877002A06D12900C8
:103DE00062792078A36800F0C7F8AEE5D87CFFF7C9
:103DF000ADFB031E28D01E69290062792078A368D4
:103E0000B047A2E5134B1A78D20700D49DE5124AB9
:103E1000002A00D199E518780007C00F00E000BF24
:103E200093E50C4B1B78DB0700D48EE50B4B002B86
:103E300000D18AE500E000BF87E56368002B00D170
:103E400083E5A068984780E50BB0F0BD0000000056
:103E500000000000600D00200000000000000000D5
:103E600070B5124B06009C89D889221A151C92B293
:103E7000402A00D940251A78ADB27F2A09D9844258
:103E800010D099682A000A4818F05CFC8021084A82
:103E900003E000210A008442F9D12B003000FFF733
:103EA000DFFC70BD80210022F7E7C046D40D002062
:103EB000940D002080238B431900002310B51A00B5
:103EC000FFF7CEFC10BDFFFF70B5074C06000D00DC
:103ED0000822200018F036FC002330002978A36067
:103EE000E360FFF7E7FF70BDD40D0020F7B5124D7A
:103EF00016000190082228000C001F0018F022FC78
:103F00000023AE60EB81E379A2791B0213431A1CF4
:103F1000BB4200D93A1C91B2AA81002B07D00029DC
:103F200001D0301E02D00198FFF79AFFFEBD217824
:103F30000198FFF7BFFFF9E7D40D002010B5142258
:103F40000021024818F0F2F910BDC046D40D00203F
:103F5000014B18617047C046D40D002010B5054CC8
:103F600001000822200018F0EDFB0023A360E360AD
:103F700010BDC046D40D002070B5254C1E0023781E
:103F80000500DA09C9098A4212D0002086420ED102
:103F9000204B834203D02100280000F0A1FA2369BE
:103FA000002B03D02200032128009847012070BD78
:103FB0007F2B06D8A368181EF9D03200164918F0D6
:103FC000C1FBA268E3899219F318A260E2889BB250
:103FD000E3819A4201D03F2E15D82369002B04D1EA
:103FE00028002178FFF766FFE1E702212200280080
:103FF0009847011EF4D1280000F038FB80212800EA
:1040000000F034FBD2E72800FFF72AFFCFE7C046D5
:10401000D40D0020E1440000940D002070B505008F
:10402000103504002800FFF719FA3F2811D90020A5
:10403000E178FFF7F5FB00280BD02800FFF70EFA18
:10404000E1783F2806D9220040230020A832FFF75C
:1040500007FC70BD0020FFF7F3FBFAE794235B0039
:10406000434310B502481818FFF7CBF910BDC046FE
:10407000F80D002070B59424640044432000064DE0
:10408000103092B24019FFF70FFA06006019FFF7DF
:10409000C5FF300070BDC046E80D0020F7B5050033
:1040A000FFF7B8FA00282CD0FFF7BCFA061E28D17B
:1040B000942464006C432500134F1C35E819FFF766
:1040C000A0F9B0421DD03B19300099780193FFF759
:1040D000A7FBB04215D0E834E119E8194022FFF7F8
:1040E000E3F9019B05009978B04208D00300E2197A
:1040F0003000FFF7B5FBB04203D02800FEBDFFF74C
:104100009FFB0020FAE7C046E80D002070B594241C
:1041100064004443084B0500E418200092B2FFF706
:10412000FEF906002000FFF76CF93F2802D92800AD
:10413000FFF7B4FF300070BD040E002094235B0035
:10414000434310B502481818FFF788F910BDC04660
:10415000040E0020942213B50E4C002120005200C2
:1041600018F0E4F8FF236371E1235B02A3600823E6
:10417000A373002340220093074901330748FFF748
:104180002CF901234022064900930648FFF725F940
:1041900013BDC046E80D0020100E0020F80D0020D1
:1041A000500E0020040E002010B505220021074803
:1041B00018F0BCF80648FFF7BBF90648FFF7B8F956
:1041C00001210448FFF7B9F910BDC046E80D0020F1
:1041D000F80D0020040E0020F0B585B003904B7957
:1041E000022B03D00025280005B0F0BD8B79022BEF
:1041F000F8D11E4EB378002BF4D109258B7833709B
:104200000C780C196378242B20D1954219D9637846
:10421000042B12D163790A2B0FD1154B2778019308
:10422000144B039800930223E1191A00FFF7D2FA06
:104230000028D7D00E357D19ADB23000FFF7EEFE65
:10424000D1E723785D19ADB2E418DBE7052BDED1A9
:1042500021000398FFF7A4FA0028C3D0A378737055
:1042600023785D19ADB2E418D1E7C046E80D00200F
:10427000EA0D0020EB0D0020F8B504000B001078CB
:104280001100602200250240202A17D12A4F4A79C6
:104290000E7938781202324390420FD14878203894
:1042A00003280BD812F0F8FB02161938012B07D19E
:1042B00007232000214AFFF719FE01252800F8BD39
:1042C000032BFAD11E4B002BF7D000201B4900E036
:1042D00000BFF2E7012BF0D1EAE7012B03D1200068
:1042E000FFF7F2FDE9E7032BE7D10126CC788B78C5
:1042F000310024021C4325001248A1433C71FFF702
:104300001CF9114B3540002BD7D062082900002042
:10431000324000E000BFD0E7012BE0D0032BCCD12E
:104320000A4B002BC9D08B78C978002009021943A9
:1043300000E000BFC1E7C046E80D0020F00D0020FE
:1043400000000000040E002000000000000000003B
:10435000F0B5324C85B003901D00E3780F008B421E
:1043600027D0A37800208B4239D12D4B002B02D0CF
:10437000002000E000BF0020FFF790FE00282DD1B4
:104380002848FFF73EF8002828D1854226D03F2351
:104390002E001E401D4221D1A1780398FFF740FA5C
:1043A00000281BD033003200A1780398FFF758FA99
:1043B00014E01D4BAAB202931C4B02991800019302
:1043C000FFF7ADF81A4B002B0BD11A4B002B1DD168
:1043D0002000FFF723FEA378BB42C6D0012005B022
:1043E000F0BD63790026FF2BEFD0AE42EDD0029BEB
:1043F00062799B5D9A4207D10198FFF716F8002871
:1044000002D1617900E000BF0136EEE70198FFF7C5
:104410000CF80028DCD100E000BFD9E7E80D00204F
:1044200000000000040E0020900E0020F80D002077
:10443000000000000000000082230122DB05197843
:1044400010B50A431A709A78D207FCD59A78D20729
:10445000FCD41F24184A198D1268A143900C2040E7
:1044600001431985500B198D2040144C80012140C7
:1044700001431985198D12489201520F0140120310
:104480000A431A850322D9780A43DA700C22D978B4
:104490000A43DA700B4A5A6200221A8106321A70F5
:1044A0008223DB059A789207FCD4998B9A8B0A4376
:1044B0009A8308221A8310BD206080003FF8FFFF16
:1044C000FF8FFFFF1C0F00202022014B1A60704756
:1044D00000E100E02022014BDA67704704E100E0D0
:1044E0000B785B0609D14B78052B06D180228B789F
:1044F000524213438222D2059372074B074A1A6035
:104500005968074A1140802292020A435A605A6849
:10451000920B92035A6070471C0F0020100F00206E
:10452000FF3F00F0F0B54B790A791B0213430022DC
:104530005805400D0126D51CAE40864205DA0132F1
:10454000072AF7D100205B0525D47F23072488782C
:10455000164D03405E00C00936183601AD192240E1
:104560006E681707124A5B0132403A436A60114A8B
:104570009B18CA7819789207920F013222400028BE
:104580000AD1A1430A431A7011221A71597A103ABA
:1045900001200A435A72F0BD7020120181430A4380
:1045A0001A7022221A71597A203AF1E71C0F002062
:1045B000FFFFFF8F000100417047FFFFF0B57F272D
:1045C00020480F407E01C9097D0034186D181E482F
:1045D0002D012A501D4D002F13D1BA4211D1934203
:1045E0000FD11B4F3A78D2098A420AD08022076045
:1045F000476892022F403A4342604268920B92030E
:1046000042609B04801900290FD1426819091300E8
:104610002B400B43436043689B0B9B034360402349
:1046200023713C3B0120E371F0BD4269990C2A40A3
:1046300042614269930B9B030B4343618023637187
:10464000783BEFE7000100411C0F0020FF3F00F026
:10465000100F0020002310B51A008021FFF7AEFFD5
:1046600082230122DB059A831A8310BD7F23054A2A
:104670000B405B019B18C9092022012900D01022A0
:104680005A717047000100417F23054A0B405B01CE
:104690009B18C9092222012900D011221A717047E2
:1046A000000100418223F0B500240125DB051B8CAD
:1046B00087B09BB201932B00A340019A1A4230D0DD
:1046C00002221A4B67010094FE18F37900931342FB
:1046D00013D0E022164BD200FB185B680392002235
:1046E0009B040492803A9B0C03A822438360290018
:1046F0000271FEF7E1FF0223F371009B2B4210D001
:10470000E0220C4BD200DB195B68039200229B0471
:1047100003A89B0C0492290004718360FEF7CCFF70
:10472000F5710134082CC6D107B0F0BD000100417D
:104730002C0F00201C0F0020822330B5DB059A8B44
:104740001C8B85B01440042214420FD09A836B4610
:1047500000210632981D17F0E9FD00236A46137107
:1047600003330121537101A8FEF7A6FF01252C4256
:1047700014D082231022DB059D839A831A836B4613
:104780000021063A981D17F0D1FD00236A461371E7
:1047900004332900537101A8FEF78EFF10231C4239
:1047A00012D08222D205938393826B460A22002183
:1047B000981D17F0BBFD00236A46137105330121D4
:1047C000537101A8FEF778FF0822144230D08223EB
:1047D000C021DB059A8309329A82204B101C204CA1
:1047E0005A68890522400A435A605A692240114397
:1047F000596113211B4A107051721B4A1A60596883
:104800001A4A1140802292020A435A605A680021D3
:10481000920B92035A606B460A22981D17F086FD90
:104820006A46002301211371517101A8FEF744FF6C
:104830000F4C237ADB060CD5C023DB0001930A4B17
:1048400002AA03CB03C2012101A8FEF735FF112301
:104850002372FFF727FF05B030BDC0461C0F0020B4
:10486000FFFFFF8F00010041100F0020FF3F00F00D
:10487000FF00004170B5FDF76BFC1022194B196960
:104880000A431A61012299690A439A614123164A2F
:10489000136013685B06FCD5802502208024134931
:1048A000134B6D048D601A78A40402431A70114AE8
:1048B0008C601678304310704D614C61012118787E
:1048C0000F250843187006200B4B1C78AC4320437F
:1048D00018701078014311706022197829400A433A
:1048E0001A7070BD00080040981C00400060004134
:1048F00058600041596000413C60004110B5FEF72E
:104900002DFB10BD8223DB0518788007C00F704790
:1049100010B50020FFF710FF10BD01204042704786
:10492000012040427047002070470020704701205E
:104930004042704701204042704702680300012056
:10494000013204D05868013043425841C0B2704728
:1049500010B50A68046803000020944208D05B6820
:1049600049688B4204D08C4202D0D01A431E984131
:1049700010BD83059B1501335A4253411818800519
:10498000800D043070470A680368534003604A682A
:104990004368534043608A6883685340836070472C
:1049A000030002680020824205D15A68824202D187
:1049B000986843425841704710B5E0240268E4000B
:1049C000120D0023224204D00430FFF7C1FF01235F
:1049D00043400120184010BD82B0019001AB002877
:1049E00001D102B070471B688B4201D01868F6E70E
:1049F0000120F6E710B504000800E16E636D0818A9
:104A0000C01A12F0EDF8A36D8B4209D9626ECB0883
:104A1000D21807231940063B8B4011780B431370C3
:104A2000002010BD80235B050B405A425341184AB9
:104A30005B421340174A30B59B18026814004C4083
:104A400023420BD093059B15013307D0124D114C17
:104A5000124B15400C402B439C4203D100230360B2
:104A6000012030BDE02480250B0DE400ED001C404A
:104A7000AC4205D114030903A40D890D8C4201D267
:104A80000020EEE75BB29B029B180360F8E7C0468C
:104A9000000010F000FCFF7F00FC0F000000F04F52
:104AA00010B504000800FFF764FF23681B1823609B
:104AB000002010BD03680133036000207047FFFF32
:104AC000F0B589B00F9E0793119B1700F218836E03
:104AD0000290DB6903919A4205D8C36E002B29D05E
:104AE0000E9A934226D854204042BFE0039B002BED
:104AF00047D01B680E9A119C934225D1039B59689D
:104B00009B68CB18B3421FD9B14218D89C1B119B8C
:104B10009C4200D91C00039B711ADB6822005918C3
:104B2000109817F00FFE109B36191B191093119B4C
:104B30001B1B1193119B002BD8D1119896E0119B50
:104B40008C1B9C4200D91C003B680E9A93421ED1DC
:104B50007968BD684D19B54219D9B14213D8AD1B5A
:104B6000A54200D92500FB68711A59182A0010982F
:104B700017F0E8FD109B76195B191093119B5B1BD6
:104B8000D7E7119CE0E7891B8C4200D90C00119BF0
:104B9000079A934228D3029B30009B6E5D69049371
:104BA000290012F01DF800291ED1119B9D421BD82F
:104BB0002900200012F014F8631A00930593049B57
:104BC00006915B6832001D000E99109B0498A8475F
:104BD00000284BD1109B059A9B181093069BB61882
:104BE0001C1B119B1B19A4E7029BDB6E002B08D03A
:104BF0000E9A934205D86B211D4B1E4A1E4815F094
:104C00007BFA0E9B30003B60029B9D6E6B69190026
:104C1000049311F0E5FF731A06937B60079B0591DF
:104C20005C1E049BE418A4191900200011F0D8FFA1
:104C3000EB69641A9C4200D91C00059B9A1BAB6A65
:104C4000A4189C4200D91C00BC60009428006C6829
:104C5000FB68069A0E99A047002804DD7621074BD1
:104C6000044A0548CBE7002800D13FE709B0F0BD72
:104C70007C480200F3600200AA480200B948020022
:104C8000F0B51C008BB0CB680D6905903C300F006F
:104C9000079206930995FFF78FFE002800D17AE06E
:104CA000079B1E03B60D0BD0059B2203DB6B920DF9
:104CB0001B039B0D93424AD093429B419B0A9E0249
:104CC0002800FFF756FE069A031D93423FD8069B25
:104CD000059A1B1A06930423039309AB0293069BC0
:104CE000002101933B68100000930423FFF7E8FEC6
:104CF000011E2ED1099B079A1BBA6B405B005B0813
:104D000012030993920D824218D0E02080212A0DCF
:104D1000C000C9001040884210D1A01B0103890DBA
:104D20008C462903890D8C4508D31D4908401D492F
:104D30000143A9420BD052B292029619A21B0799C5
:104D40006A40114229D1AC05A315013304D10221D7
:104D5000494208000BB0F0BD129BA40D9C4200D943
:104D60001C00119B069A0293109B039404339B181A
:104D700001933B68059A0021009310002300FFF780
:104D80009FFE011EE5D1129B1A1B119B181917F0EB
:104D9000CDFA7119DDE7060092E71D0090E7C046E5
:104DA00000FC0F00000010401FB59C05A40D0294EC
:104DB000069C019400240094FFF762FF04B010BD2C
:104DC00030B587B003AC1500084B094A0094FFF7D3
:104DD000EBFF002804DA831C00D1002007B030BDAF
:104DE00021002800FFF7CFFDF7E7C0460C00F07F59
:104DF0000000F07F70B508250400006886B001004F
:104E0000836E039504AD02955668103101961268C1
:104E10000092DB690200FFF753FE002803D128004F
:104E2000211DFFF795FD06B070BDFFFF70B5074966
:104E3000040017F03FFB05490500201817F090FB10
:104E40002418605D43425841C0B270BDC2480200A0
:104E5000F0B51C0006002000194B0F0085B008308B
:104E60009A4207D1174917F021FC02232370002032
:104E700005B0F0BD336F950201330090124A300047
:104E80002B43FFF791FF0028F2DB104B000D2B4363
:104E900002AD2070390030000D4A0095FFF784FF05
:104EA0000028E5DB0B4A030D934202D1039B6360AC
:104EB000DDE7094A9342DAD18005800D6060D6E7CC
:104EC000FF030000C248020000FC0F780800002029
:104ED00000FC0F700202000001020000C36E10B55A
:104EE0008B4206D88A21084B084A0948490015F028
:104EF00003F9806EC3689847002804DD8B21054BB9
:104F0000024A0348F2E710BDAF4E0200CE60020035
:104F1000AA480200B9480200F0B50027B1B00693D4
:104F200039AB1B88150007933AAB1B880D900B9388
:104F30003BAB00229B5E09910822002110A8089338
:104F40003E0017F0F3F90698FFF713FD4319059398
:104F5000099B059ADB689A4239D2042303930FAB6D
:104F60000293099B01921B680D9A00930021042370
:104F70001000FFF7A5FD002800D018E10F9B069A4E
:104F80001BBA5A401300802212061A431400099BD0
:104F900006921B680F921093059B0433119310AB7C
:104FA0000A933300389A634013401D00814A15402C
:104FB00013424AD1389B1B039B0D00D19DE0022F69
:104FC00016D97D4B7D4A7E487E4915F095F8379B72
:104FD000002B00DCE9E0369B05951C685B680F94AC
:104FE0000A93369B08333693379B013B3793D8E7B8
:104FF0003C227A43099B059912A8135083185960E3
:1050000006999E6199603699DC62D96037992C3295
:105010001961389901375961079999830B99D98397
:10502000089919843C9959623D9999620A991963C2
:1050300010A9343350C950C32E0083183D933895BE
:10504000614B08953C930B950795059D7BE7812265
:10505000520093421ED100250A9C0F998A05920D99
:105060009542F2D2C022089B0903890DC918A36892
:1050700089021943237892009B181B051943626823
:105080003D983C9B9847002800DA90E0DDD10C3435
:105090000135E2E7089B0A9A99023D983C9B091961
:1050A0009847002800DA82E0CFD0002F00D17EE0C0
:1050B0003C22013F7A4312ABD1589B185A680991A0
:1050C00005929A68DC6A0692DA689E6936921A69D5
:1050D0000F9437925A6938929A8B0792DA8B0B9217
:1050E00020215A5E08925A6A3C929A6A3D921A6B43
:1050F00034330A9210AA21CB21C2389B1B039B0D8B
:1051000007D0079A23039B0D93429ED30B9A934299
:105110009BD263005B0D98D00222FF32934296D15E
:10512000294B3C9A9A4290D03C2213007B430C932B
:105130000C9912AB5D182800002117F0F7F80999B7
:105140000C9A0AAB20339950059BAE616B60069BAD
:105150008026AB60369B0137EB60379BB6052B6131
:10516000389B6B61079BAB830B9BEB83089B2B846A
:105170003C9B6B623D9BAB62A3059B0D0793013388
:105180000B932403079BA40DE41A089B1C1923B25C
:1051900008930A9B09930D4B38930023379336935A
:1051A000013B0693002305934FE700207DE731B0D4
:1051B000F0BDC0460000F07FC448020078600200E5
:1051C000AA480200C2030000254A000000FC0F604C
:1051D000F0B58BB0119F0993139B1500FA18836EDD
:1051E0000600DB6908919A4221D9542040424EE0E2
:1051F000EB6805932B6802331ED16968AC680C1903
:10520000A74219D28F4217D3139BE41B9C4200D9AB
:105210001C00059B791A59182200129817F092FA6F
:10522000129B3F191B191293139B1B1B1393139B68
:10523000002BDDD113982AE002235B422B60B36E72
:10524000380006935B691900049311F0C9FC7B1ABE
:1052500007936B60099B5C1E049BE418E41919001A
:10526000200011F0BDFC069B641A9B6A9C4200D989
:105270001C00059BAC600193079B30000093054A1E
:10528000109B08990294FFF7FBFC0028B0DA0BB0E2
:10529000F0BDC04600FCF7FFF0B500248BB0129EB5
:1052A0000490059106920793119BA34202D8002017
:1052B0000BB0F0BD119B1D1B082D00D90825109ABD
:1052C000069BA2180192079A08AF00920021059A46
:1052D00004981B1B03950297FFF7F2FB0028E7D108
:1052E0002A003900306803F0EDF964193060DBE71B
:1052F000F0B59BB00F93C36E07000C001600002B97
:1053000007D01268934200D818E27268934200D81E
:1053100014E2002512AB129513950693079504230A
:1053200000210393069B01910293AB00F3583A00CE
:10533000009338000423FFF7C3FB031E059004D03D
:1053400054330DD005981BB0F0BD0123069A6B4075
:105350009B0012A912685B58D31A002B00DD079539
:10536000069B6A1C043301250693022AD7D1280024
:10537000079B0C92990073582360079B5B19184098
:1053800003009340F3580B90636012ABCB58A360BB
:105390000023E360013B0593CB4B14AA21CB21C230
:1053A0002100012004220831404203F08BF9059BC3
:1053B00001260693002310900E930D9309937642D5
:1053C00008933000FFF7D5FA0422089B00211B1830
:1053D0000893BB6E039211AA0292089A38000192B8
:1053E00022680092DB693A00FFF76AFB051E05D0D0
:1053F0002B00543300D124E10595A3E70422109833
:1054000011A903F05FF9119B10901BBA7340079329
:105410001193AB421CDAF023360DDB001E40AB4B80
:10542000F61873425E41F6B2E568002D00D00AE13D
:105430000B9A12A99200525825686368A2600C9AD0
:1054400023606560012A00D170E101230C93A3E77A
:105450000798FFF78EFABB6EDA69089BC318934270
:1054600000D9EEE0A026F600B446F0260899F60032
:1054700004310A9107992368090D3140614538D1FB
:105480000421039118A902910A9900930191130034
:1054900029003A003800FFF713FB051EA8D1189A1F
:1054A000109B9A4200D0CCE0119B079A1B0DDB07A2
:1054B0005A40079210A90422F86A03F003F9F8622F
:1054C0001198FFF756FA089BC018079BE06023610C
:1054D000099BA382149BA361159BE3610D9BE3755C
:1054E00001235B421093069B069A079E0592069342
:1054F00067E710A902910A990438019000913800D9
:105500003900FFF7C9FE051E00D071E7119BE021AD
:105510001E0D3200C9000A400E421DD1099A1B031C
:105520009B0D9A4201D8013309931199209B0F9E3C
:105530000F9A4B401E401A4269D123682398189352
:105540000A9B18AA1993229B9847051E5BDA030051
:10555000543300D168E74FE78021C9008A4220D147
:10556000099A76B2921992B259490992069A114053
:10557000584A0A43934205D18023069A1B061A43D0
:105580000692D2E7069A0132CFD0069A1B03120385
:105590009B0D920D9342C8D8069BB602F318069352
:1055A000C3E7C0212368C9008A4214D10821BA6E1A
:1055B000039114A902910A9900930191D369010002
:1055C0003A003800FFF77CFA051E00D010E70123EF
:1055D0001E400D96A9E7404A7605760D9642A4D165
:1055E0000821BA6E039116A902910A9900930191BC
:1055F000D36901003A003800FFF762FA543020D036
:1056000001230E9391E71199002804D10691059A80
:10561000069B069268E7069B304A4B4013420DD02A
:105620000228F4D1069B1A030B03920D9B0D9A429C
:10563000EDD380231B060B430693E8E701235B426F
:10564000FAE70026F0E60023A3759E4224D0BE6E42
:105650002800B16911F0C4FA00291DD10E9B8B42BC
:105660001AD001235B42189318AB0293169B009546
:105670000193390038002368F269FFF70DFE002816
:1056800004D00300543301D005905BE6189A179BB1
:105690009B1A5A425341A375380021003C30FFF752
:1056A0008BF9002825D0FB6B059A1B0312039B0D79
:1056B000920D9A4214D18023059A1B061A43059233
:1056C000219B002B18D124E00047020000FBFFFFC4
:1056D00000FC0F000000F04FFF05000000FCFF7F02
:1056E00005990131ECD09A4203D9059B144A9B18C5
:1056F0000593219B002B08D0059BA28A1B039B0DC1
:10570000934200D91300219A1380059B002B00DBE4
:1057100018E60021059BA28A1B039B0D05919A4266
:1057200000D80FE602235B4205930BE6054A0649C3
:1057300001920648064A009516F0A6F95423F2E7AE
:1057400000FCFFFFB8560200AA480200CB48020046
:10575000650500001FB5012300245B4203940294F9
:1057600001940093FFF7C4FD04B010BDF0B593B0F1
:105770000D93036A15688B61436A0F00CB612B7828
:1057800006900B92002B00D190E04B4C63005B0D18
:105790000993022B04D12800484916F0E1FE2D1888
:1057A0002800464916F086FE0490012806D12B7881
:1057B0002E2B0ED16B1C0793079DE7E7049B022B52
:1057C00007D128003E49049A16F08EFD002800D12A
:1057D0006CE0049BEB181E00079301230593374BE5
:1057E0000A93374B0C9330000A9916F0B9FE36181D
:1057F00030000A9916F05EFE089000281CD001289F
:1058000005D133782E2B13D1089BF618EBE7089BB4
:10581000022B0DD11A0030000C9916F065FD0028FE
:1058200006D1059B013B05938342EDD1B31CC2E732
:10583000059B01330593E7E72B78002B33D00B9BB7
:105840001D60099B022B34D11E4A23039B0D9342FA
:105850000DD01D4A1D4B224013433A0018320092CE
:1058600039001B4A0698FFF79FFA041E1BDB0FAB9B
:10587000069A0393174B0F920293049A0D9B119271
:1058800001930092F0233A0039000698DB051832A4
:105890001095FFF72DFD041E05DB00288CD1FB7D44
:1058A0008342E4D1023C200013B0F0BD16246442D0
:1058B000F9E71424FBE7C04600FC2F00C2480200B1
:1058C00000490200FF03000000FC0F000800002058
:1058D00000FC0F7039590000F0B5160000248BB0A1
:1058E000059006910793129BA34201D800201FE068
:1058F000129B1D1B082D00D90825109A08AFA2186D
:105900000192079A002100920598069A331B03958D
:105910000297FFF7D5F800280AD1119B2A0038001A
:10592000191916F0E1FC002804D0C043C00F013063
:105930000BB0F0BD6419D6E730B505001300AA68B6
:105940008C05006885B0A40DA24200D92200029205
:1059500069680191596800911B680100FFF7BCFF5D
:10596000002805D1AB68A34202D0A34240410130D8
:1059700005B030BD036B10B59A05940D002A07D110
:10598000914210DA0D4B0E4A0E480F4914F0B4FB49
:10599000FF225200944206D9002904DD0B4B084A2D
:1059A00008480B49F2E7C9188B055A1E9341490074
:1059B0004908DB070B43036310BDC04603490200DF
:1059C000A2600200AA4802001A130000394902002E
:1059D0001B130000836E10B55B6B0400002B02D11B
:1059E000C06814F0D5FBA36E9B6B002B02D1E0695D
:1059F00014F0CEFBA36EDB6B002B02D1606E14F0B3
:105A0000C7FB10BDF8B5C7690C68083F0E00002041
:105A1000BC4215D33900200011F05CF8013811F0B8
:105A2000CDFA023080003900201A11F053F8050039
:105A300011F0C4FA8000241A28006F43E41B34607C
:105A4000F8BDF0B58BB0070006910792002B08D186
:105A50000122119952420A600020129A13600BB081
:105A6000F0BD856E013B09A928000993FFF7CAFF25
:105A700010A904002800FFF7C5FF0590059B079EAD
:105A8000A34203D3119B1E60109BE5E7059BE01A20
:105A900011F00EFA0500200011F028FA1F235D1BFB
:105AA000854200D905000423039307AB0293AB00A2
:105AB0000193002104233800069A0096FFF700F8AE
:105AC0000028CCD10123AB40E41AD7E7F0B589B068
:105AD0000C0006924A6BC96A070000208A4227D24E
:105AE0008A1A05929A4200D90593059E002E01D18B
:105AF00005981DE08023206BDB02184204D0BB6EAA
:105B0000E26BDB699A421ED180225203636B104222
:105B100010D1220021003C320292043A01920093FB
:105B20003800E36AA26A4031FFF78BFF002805D0F6
:105B300009B0F0BD02225242A263E3638023206BCE
:105B4000DB0218432063BB6EE26BDB6994469D1A4F
:105B5000B54200D9350080214903014007918021D9
:105B6000220049034032039508421AD00699029157
:105B700061460191A08810498002014300912100F3
:105B800038000831FFF724FB0028D1D1636B761B66
:105B90005B196363E36B5B19E363069B5B19069315
:105BA000A4E70699029161460191A06B07990090C4
:105BB0003800FEF785FFE7E700001020F0B58DB054
:105BC000059000201D00129B06910792834236D05B
:105BD000013B0993059B09A9986EFFF713FF012765
:105BE000040029001498139B9847002827D1844269
:105BF00025D023003B4004930223049A0AAE9B1A4B
:105C00009B000190079A06990598039302960095C8
:105C1000FEF756FF002812D13D00A543A84205DB40
:105C2000049BAD00023C7559E418DAE7139B316818
:105C30001498984703003800002BEFD018000DB0DF
:105C4000F0BD10B50C00826AFF21E06816F06EFB13
:105C500001235B42236010BDF0B50B6A85B0C366BB
:105C60004B6804000D008166002B05D1A74BA84AA4
:105C7000A848A94914F040FA8B68002B04D1A74B1F
:105C8000A34AA448A649F5E7CB68002B04D1A54B4D
:105C90009F4AA048A449EDE70B69002B04D1A34B10
:105CA0009B4A9C48A249E5E74B690293002B04D12B
:105CB000A04B974A9748A049DCE78B690393002BD8
:105CC00005D184219D4B924A92484901D2E78E6AC0
:105CD000002E04D19A4B8E4A8E489A49CAE730006A
:105CE000029910F07DFF002904D0974B884A89481B
:105CF0009649BFE73000039910F072FF002904D0E5
:105D0000934B834A83489349B4E7EB693100180009
:105D1000009310F065FF0F1E04D08F4B7C4A7D4826
:105D20008E49A7E7009B7F2B04D88D4B784A794892
:105D30008C499FE76B6A002B04D18B4B744A7548E2
:105D40008A4997E72B6B002B12D0009A5208934296
:105D500004D2874B6E4A6F4886498BE75A1C07D09E
:105D6000009A9A4204D2844B694A6A48834981E77F
:105D7000EB6C0193002B20D01800029910F030FF3B
:105D8000002904D07E4B624A62487E4972E703993B
:105D9000019810F025FF002904D07B4B5C4A5D4838
:105DA0007A4967E70199009810F01AFF002904D09A
:105DB000774B574A574877495CE76B6B002B16D0F7
:105DC000E360AB6B002B1ED0E36128002100FFF7DE
:105DD00038FF2100A06E1031FFF733FFA56EE86A8F
:105DE000002817D16C4B4A4A4A486C4942E73000B8
:105DF00014F0C4F9E0600028E3D12000FFF7EAFDC9
:105E00000C2040427FE0300014F0B8F9E061002837
:105E1000DBD1F2E7EB6B002B08D063662B6CFF2B1A
:105E20000AD95F4B3A4A3B485E4923E714F0A6F98A
:105E300060660028F2D1E0E7002B00D1FF33236732
:105E40006B6C002B04DA584B314A3248574911E742
:105E5000002B00D1564B6367AA6C564B9A4204D96B
:105E6000554B2B4A2B48554904E7002A00D11A000C
:105E7000A267EE6CEB699E4204D9514B244A254837
:105E80005049F7E6286D411C22D0A96A884204D9FE
:105E90004D4B1F4A1F484D49ECE6904204D94C4BEC
:105EA0001B4A1C484B49E5E6DB08002E00D0F308EE
:105EB000984204D9484B164A16484849DAE6071E64
:105EC00006D1914200D911000F00994200D91F005C
:105ED0000123002520005B42236263620C2229001B
:105EE000E767A562E5623C3016F020FA20000C223C
:105EF0002900303016F01AFA20000C222900483010
:105F000016F014FA280005B0F0BDC0466F49020033
:105F1000FF600200AA480200761000008D490200CE
:105F200078100000AB49020079100000CA49020055
:105F30007A100000E84902007F100000014A0200C8
:105F40001A4A020081100000344A02008510000045
:105F5000644A020086100000944A02008710000084
:105F6000C54A02008A100000E14A020096100000B3
:105F7000FD4A02009C100000514B02009E100000E0
:105F8000B04B0200A3100000FD4B0200A510000062
:105F90004A4C0200A7100000984C0200C6100000F6
:105FA000B54C0200D2100000CF4C0200D810000007
:105FB000FFFFFF7FFE030000F04C0200DE10000038
:105FC0000B4D0200E41000003A4D0200E610000004
:105FD000914D0200E8100000E14D0200EA100000BF
:105FE000F0B589B007930B6805000C000692059385
:105FF000033302D9002009B0F0BDC36E059A9A425E
:1060000005D3B3211D4B1E4A1E4814F075F8866E49
:10601000A768B169CF19013F380010F0E1FD7F1A80
:106020000097B36830009C466268E3680599E047D2
:10603000002804DDB721144B114A1248E5E7002877
:10604000D9D1079B834204D12100A86EFFF7F9FD47
:10605000D0E70123069A5B4213600297E3683A0097
:10606000019363682800009323680699FFF734FCC6
:106070000028C0DBE8D054204042BCE7704E02004C
:10608000B5600200AA480200B9480200F7B50193C2
:10609000089B05000C00099E0092023309D0C36ED4
:1060A000089A934205D8E8212C4B2D4A2D4814F02C
:1060B00023F8AA6E0B9BD269F318934249D9E921C0
:1060C000294B274A2748F2E7013305D08321274B84
:1060D000234A24484900EAE7089B30002360AB6E5E
:1060E000996910F07DFD0023711A6160A360236837
:1060F000089A9342E8D16068B042E7D8AB6E9B6AD9
:10610000C318B342E2D99F1B0B9B9F4200D91F00CB
:10611000E368301A3A0018180A9916F013FB6368FE
:10612000A268F619F31A934200D21300AA6EA36074
:10613000926A9A4207D121002800019B009AFFF73A
:106140004FFF002809D10A9BDB190A930B9BDB1B2D
:106150000B930B9B002BCAD10B98FEBD914E0200F6
:10616000C2600200AA480200C84E0200EB4E0200C4
:10617000F0B50C00010085B0029203931E00636825
:106180001700019323680200009310310023FFF7EA
:106190007DFF051E08D132003900E06802F092FA56
:1061A0006368E0609B196360280005B0F0BDF0B53E
:1061B0000C008BB00490100017000593FEF7D9FB7C
:1061C00063686269C3180690934244D87B005B08F9
:1061D0000793079AA368210053401BBA09930498B8
:1061E000042309AAFFF7C4FF061E0DD1069B1D1F3D
:1061F00087422DDB2B002100059A0498FFF7B8FF9A
:10620000B0422BD1079BA36030000BB0F0BD01233F
:106210001327039304ABFF18059B02975B68069A4C
:10622000043B9B185B1B0193059B049A1B68002190
:10623000009310002B00FEF743FC00280ED1012331
:106240003A0021000498FFF793FF002806D1013D92
:10625000002DDCD1D6E71C267642D5E70600D3E731
:1062600010B513000A0003C8FFF7A1FF10BDFFFF20
:1062700001235B4210B5136000230400FFF7B0FE5A
:1062800000280AD1A06E03699847002805DDDD21AA
:10629000024B034A034813F02FFF10BDB948020018
:1062A0006C600200AA480200F0B50D00826E6B68B7
:1062B0009169D269143304008DB0934200D9130060
:1062C0004F1EDF19380010F08BFC00237F1A069355
:1062D00004936B68BB4228D301222B690499524274
:1062E000C91A0A920AAE049A0191029600932100FB
:1062F00020002B680432FEF7CFFF002858D10A9BFC
:10630000069A93420ED10422049B029601920093B6
:10631000210020002B68FEF7BFFF002848D10A9B10
:10632000834245D05420404242E004225242D61AD1
:10633000504AF619964200D9160017220433F6186F
:1063400004ABD218FF23BE4234D31370A16E8B6905
:10635000C969C91AB14235D301210292039101964C
:106360002A680021009220002200FEF7A9FB0028E5
:1063700002D0030054331BD1A36E21009A6901237C
:106380005B420B930BAB02930192009620002B68AB
:106390000A92FEF781FF002802D00300543307D190
:1063A00029002000344A0AABFFF701FF002809D07A
:1063B0000DB0F0BD390014398E4200D90E001370B3
:1063C000BE42C3D204ABDB7DA022DB430421DBB29F
:1063D000D200DB099B186A6849428A1A92191B0588
:1063E0001343264A0AA91A43AB68079253401BBAC3
:1063F0000422E8680A9302F065F92300103305933C
:106400000823E86003930AAB02936B680B90019337
:106410002B6822000093200000230599FFF736FE29
:106420000028C5D1049B834204D16B6804330493D4
:10643000EB68069304ABDB7D079ADB431B06DB0F9F
:10644000DB075340AB6001235B426E60EB60B742F9
:1064500006D9A36E62699B6A9B18B34200D938E7DC
:10646000220020000599FFF703FF002800D130E744
:106470009EE7C046FE03000008FCFF5F00FC0F0023
:1064800082690B6810B54C689A420BD1C369A3426C
:106490000CD10D4B0D490E480E4A15F0F5FA54205B
:1064A000404210BDA24201D1C469F0E78B68CC68BC
:1064B000A34205D15B000A60C269CB6000234A6039
:1064C000013300208B60ECE7B8560200AA480200B6
:1064D0000E4F02006F1100000023F0B58FB09361E2
:1064E0000133D361194B059014000AAA0F0023CB86
:1064F00023C21B681360250018352800FEF71DFA1B
:10650000002801D002201FE020000AA9FFF7B8FFF1
:10651000002818D1059A07AB07923A682100089223
:106520007A6803930A4B099202930A4B2A0001905E
:1065300000930598084BFEF7DBFE0222831C934371
:10654000D9D00FB0F0BD54204042FAE7084702000E
:10655000F54D000008000020FF03F07FF0B597B074
:106560000591069205001C2200210EA8079315F044
:10657000DDFE012315934F4B0AAA51CB51C21B6874
:10658000136014A8FEF7D9F9002808D088268027C0
:10659000AC6A76037F02002C58D1200040E00AA9A3
:1065A0000EA8FFF76DFF041E00D080E00EAEB169AB
:1065B0000698059B9847002832D1631C04360124B5
:1065C000022BF4D1280014AA0EA9FFF7C3F8002863
:1065D00026D104000EA98B8AA342D2D9364BA2023F
:1065E00008AF13432800354A0097FEF7DDFB00286B
:1065F00004DA831C14D10134A4B2EBE7304B000D54
:1066000098420FD1069B2A000293059B002101931B
:106610007B6828000093089BFFF7D0FA0028EAD097
:1066200017B0F0BD079B002BE5D080239B0098425C
:10663000E1D10026B300F9580698059B9847002839
:10664000EED1731C0126022BD5D0F3E7A379012BE1
:1066500001D024689FE7236B3340BB4217D09022C0
:10666000236B52031340802292029342F1D1210006
:10667000069B2A000293059B28000193636B40311F
:106680000093A36BFFF79AFA0028E2D0C8E7210035
:10669000069B2A000293059B28000193E36A403180
:1066A0000093A36AFFF78AFA0028D8D0B8E75420ED
:1066B0004042B5E7084702000800002000FC0F70C8
:1066C0000202000010B50400406DE36DE16EC018D9
:1066D00010F086FA0023E365A36E6165DA6A216E25
:1066E000D3008B4200D90B000021A365606E15F02A
:1066F0001DFE0123220020000549FFF72FFF00287F
:1067000004D00023A365E365E36E236610BDC04695
:10671000F5490000F7B504000F000126A26DE06DF9
:10672000904212D3236E002B37D1636DE16EC018F7
:1067300010F056FA1D4A0B0000921D481D4A1E49D2
:1067400015F0A2F91C20404220E00721656EC30825
:10675000EB5C0140CB40334219D1636DE16EC01850
:1067600010F03EFA012239600721A66DE36D206E1C
:1067700001330138E3652066B34214D2D808285C9F
:106780000B40D840030010401342EFD1FEBD236EF2
:106790000130013BE0652366C1E72000FFF792FF6F
:1067A0000028BBD0F2E70020F0E7C046B856020050
:1067B000394F0200BD020000AA4802007FB50D005B
:1067C00004310600FFF7A6FF041E2FD12900300078
:1067D000FFF7A0FF041E29D12A0004230832A86075
:1067E0000190039302922A68010000923000320067
:1067F000FEF766F9A04202D00300543319D1B36EFC
:106800005B6A002B0ADD0121AE6801331943013EAA
:106810007618300010F0E4F9761AAE6004230022F6
:10682000EB60053B2B616A61AB61EB61200004B05A
:1068300070BD0400FAE7FFFFF0B504000D0089B059
:10684000200007A9FFF766FF061E0AD1079B20005C
:1068500019000593FEF742FB061E62D00300543375
:1068600061D0300009B0F0BD802029002A6B4003C0
:10687000DB1B4031024229D0012202A803921232CE
:10688000121802920197A8882D4A800202430092B2
:1068900020000A003839FEF79BFC002814D10123A0
:1068A000210002AA039312339B180293059B220036
:1068B00000932000012301971031FFF7E7FB002828
:1068C00012D0030054332ED00600CAE7012202A8DA
:1068D00003921232121802920197AA6B20000092C2
:1068E0002200FEF7EDF8D8E70137EB6BBB42BBD8CF
:1068F000A36EE1699A6AE86C15F024FF2100236910
:10690000A06E2B64636910316B64A369AB64FFF7FD
:1069100098F9059B2A6BAB6380239B0213432B637F
:106920009FE70700E1E7074B074900930748059BEE
:10693000074A15F0A9F801235B42236180E7C046AE
:1069400000001020B8560200AA480200624F020060
:10695000FF0C0000F0B593B00A930B6B06000D001E
:106960000992DB021DD54A6B0A9BC96AD3188B4278
:1069700000D20B00F16F994213D2F36EEA63290043
:1069800033663000FFF758FF2B6B041E06D08022C1
:10699000120313432B63200013B0F0BD8A4A134047
:1069A0002B630A9B0593059B002B01D10A9CF2E700
:1069B000802180232A6B89029B0211401A4204D055
:1069C000B36EEF6BDB699F4253D16B6BD20200D584
:1069D000E5E000291AD18B4218D011AA02922A00B0
:1069E0002F003832013B01920093403739003000CC
:1069F000EB6AAA6AFFF725F8041E03D080232A6BEE
:106A00001B03C6E73900B06EFFF71BF9F36E336660
:106A10002B0040330B93AB6B0C936B6B07933000E5
:106A20000FA9FFF777FE041EE8D10F9B3000190075
:106A30000493FEF753FA041E0ED023005433DDD125
:106A4000624B634900936348049B634A15F01CF84A
:106A500001235B422B64E2E7079B83422BD1049B1B
:106A6000AB63079B1F00EB6380232A6B9B021343DE
:106A70002B63B36EDB69DF1B059B9F4200D91F00B0
:106A80002900099B03970293EB6B32000193AB6BD8
:106A90003000009340310123FFF7F8FA041E00D1C3
:106AA00082E003005433A9D129003000FFF7C4FE6F
:106AB000041EE5D0A2E7B76E079B3800013B10A982
:106AC0001093FEF79FFF109B01330893089AFB6910
:106AD00006929A4249D1013010F008FA2700431C6F
:106AE00006930C9B08901193BB000D930423039312
:106AF00011AB0293BB000193049B32000093300062
:106B000001230B99FFF7C2FA041E96D1089BBB42E2
:106B100034D1069B0137BB42E6D8049BAB63069B8E
:106B20009F0029E0012311AA02920C9A039300927C
:106B3000002132003000069B0197FDF7C1FF041EC3
:106B400000D05BE70123039311AB0293049B320057
:106B50000093300001230B990197FFF797FA041E69
:106B600000D06AE7069B013B0693089B069A9F1A92
:106B7000002AD7D1049BAB63EF6375E7042303932B
:106B800011AB0293BB000193119B010000933200F3
:106B900004233000FDF794FF041EBAD02EE7022232
:106BA00052421F00AA63E7E76B6BDB196B63EB6B69
:106BB000DB19EB63099BDB190993059BDB1B059331
:106BC000F36E3366EFE6C046FFFFEFFFB8560200F4
:106BD000AA480200624F0200C30B0000F0B50B6B25
:106BE00005000C0099B05A0307D5DA0202D401223D
:106BF00052420A64354A134023639A0302D40020A8
:106C000019B0F0BD802219005203666BE76A11408B
:106C1000134248D1542203A815F088FBA36A2A0026
:106C20000D9301230E970F93109613AB83CA83C362
:106C3000012712687F421A602F60626BE36A9A42F2
:106C40001AD3210001232A0028004031FFF7C8F998
:106C500000282DD003005433D2D11D4B1D49009381
:106C60001D48A36B1D4A14F00FFF21002800FFF7F9
:106C7000E3FD0028E5D0C3E70B22012328006A4486
:106C800003A9FEF723FF0028BADB0B220123210012
:106C900028006A44FFF75EFE0028B1DB2B68013351
:106CA000CBD01397C8E73300BE4200D23B006363EA
:106CB000A36B226BA362636B6663E362084B1A40AB
:106CC00080235B021343236399E7C046FFFFFBFF6A
:106CD000B8560200AA480200624F02004E0D0000A2
:106CE000FFFFFDFFF0B51F000B6B85B005000C002A
:106CF00001929A0705D4204B204A2148214913F0DC
:106D0000FBF95B0316D4236B1A0519D4666B6A6F03
:106D1000F11991422DD89B0318D53B002100280082
:106D2000019AFFF717FE002808DB236B164A134071
:106D3000236303E0FFF752FF0028E4D005B0F0BD65
:106D4000E26A616B8A42E1D96263DFE7E36A9E42ED
:106D5000E3D96363636B9E42DFD9002302AAD37138
:106D60002100280001330732FFF7F4FD0028F1DA93
:106D7000E4E71B204042E1E7854F0200E75F0200A5
:106D8000AA480200490E0000FFFFF7FF002307B5E5
:106D9000044901AA0193FFF7E1FB002800D1019803
:106DA0000EBDC046B54A00000023F0B587B0936120
:106DB0000133D361144B0190140002AA0F0023CBBE
:106DC00023C21B681360250018352800FDF7B5FDA8
:106DD000002802D00220404212E0200002A9FFF762
:106DE0004FFB00280ED139002800FDF7B1FD002827
:106DF00006D02A0021000198FEF7ACFC0028E2D062
:106E000007B0F0BD5420E6E708470200F0B50D00DA
:106E10009DB00F9322AB0E9204CB04001B880D9201
:106E20000A9324AB1B880C93836EA868596A0130BF
:106E3000A86000292BDC00230993002701220023EE
:106E4000696816AE52421691B260F260A26E73602B
:106E50003361D36C002B47D0083B20007361FEF7F1
:106E60003DF8002842D00300543300D0D6E001237F
:106E70005B422361099B002B1CD1714B714900932C
:106E800071486B68714A14F0FFFD099F13E00126F9
:106E9000013131430FF0A4FE0029CCD11691280016
:106EA00016A91796FDF754FD09960028C5D00123B1
:106EB0005B422361012700260123280016A91696AC
:106EC0001793FDF745FDB04200D0A9E05C4B5D494A
:106ED00000935F486B685F4A14F0D6FD1C20404267
:106EE0009CE001270990A9E7D369B5E72A000423AC
:106EF000310020000832FFF73BF90028B3D111AB75
:106F00000793554B020006930A9B20005B421BB27D
:106F100005930C9B0D9904930A9B119403934F4B7B
:106F2000129602930F9B01930E9B009301235B42E9
:106F3000FDF7F2FF002896D12B00183318000B93B1
:106F4000FDF7FBFC00280DD1C022EB7DD2009B1881
:106F5000434A1B051A43310020000B9BFFF727F91A
:106F6000002880D10C22002113A815F0DFF9002F92
:106F700009D1210013A83C31FDF705FD210013A81C
:106F80003031FDF700FD210013A84831FDF7FBFC6F
:106F9000139B29009B0A9B02200013AA1393FDF761
:106FA0000FFF00283AD113A8FDF7FAFC002808D1FA
:106FB00020002C4A13AB16A9FFF7F9F8002800D0DF
:106FC00051E7200016A9FFF76FF9002800D04AE723
:106FD000179EA36E300099690FF002FE002905D0BC
:106FE000214B224A1748224913F086F820002B68CB
:106FF0006A686B602A600C9B0A9AEE609B1AAB82EF
:10700000189B0C222B61483015F090F9002F04D109
:10701000230030343C3307CC07C338001DB0F0BD2B
:107020002000291DFFF776FB002800D159E7030057
:107030001C33F3D1002F00D150E70996FEE6C0467D
:10704000B8560200AA480200624F0200330800004E
:10705000D84F0200380800006162000000FC0F40B9
:1070600008FC0F000CFCFF7FB24F02005C600200C6
:1070700021080000F0B593B0099318AB089204CB37
:107080000AAD1B880C00069329001AAB06001F8866
:107090000792FFF793FB0590002824D1E37D290098
:1070A000EB75A36930001093E369089A1193069B6E
:1070B00002970193079B0093099BFFF7A7FE002807
:1070C00014DB012331000A9F0B9D2000A761E561BD
:1070D000E3752031FDF73CFC002804D1069B834278
:1070E00001D137627562059813B0F0BD0590FAE7DB
:1070F000F0B59DB00A93229B0D920A9ADB00D3183B
:107100000F93E023DB0007000E0000209C460124C3
:107110000F9B9A4200D085E0002800D0ACE0B37D00
:10712000002B00D0C8E001235B423B61B38A099386
:1071300000230B930B9A099B9B1A0C93012B00D9EC
:1071400052E10B9B002B1BD06B469D8D099B3100A0
:1071500002933800229B0A9A01950096FFF78AFF56
:10716000041E00D13EE103001C3357D1C54BC64974
:1071700001937368C54800933368C54A14F084FCD2
:10718000BB6E596A00293DDD0125B068013101302F
:1071900029430FF025FD002934D11691300016A99E
:1071A0001795FDF7D5FB0E9000282BD13800FFF77F
:1071B000EDFD041E76DBFB6E1C1ADB089C4221D918
:1071C000B14BB44A0B93AF4B0B9900930C93B2485D
:1071D000B36814F059FC099B310002930E9B3800F0
:1071E00001930A9A229B0096FFF744FF041E00D1E8
:1071F00034E103001C3311D1A8480C9BA84A0B9919
:1072000014F042FC099B31000293002338000193E3
:107210000A9A229B0096FFF7F9FD0400002C00DB80
:10722000C8E03FE013689F4D1B0D5905490DA94269
:1072300004D1B38A0133B382083269E79A4DA94277
:107240000CD1B38A002B05D1984B994A8E489949A5
:1072500012F052FF013B2000B382EDE76146C025EA
:107260001940ED00A942E7D1516823400D68B5618E
:107270004968F375F161DFE7B38A002B00D04EE770
:10728000239B002B04D18C4B894A7F488B49DFE735
:1072900031003800239AFFF787FD041E05D0831CB8
:1072A00000D13CE720001DB0F0BD239BDB7D834275
:1072B00000D134E702247DE001213368B86E16ADB9
:1072C00049421693F2683369E960C16C6A60AB6049
:1072D0002A6100291ED00839696111A907917849EE
:1072E00038000691002105910491039102912299A1
:1072F000119701910A99129500913100FDF70CFE4A
:10730000041E09D023001C3300D10CE723005433A2
:10731000C8D108E7C169DEE70C22010013A815F007
:1073200005F8390013A83031FDF72DFB390013A8FB
:107330003C31FDF728FB390013A84831FDF723FB4A
:10734000139B13A89B0A9B021393FDF729FBA042F2
:107350000ED13100380013AAFDF732FD041EA1D171
:1073600029003800574A13ABFEF721FF041EC9D18C
:10737000380016A9FEF798FF041EC3D1179DBB6EF7
:10738000280099690FF02CFCA14204D04E4B484ACA
:107390003D484E495CE7189B3A0033613B00F5607D
:1073A0003C33303223CA23C338000C22210048303A
:1073B00014F0BCFF0D9B1B6816930D9B5B68179325
:1073C000BB6A0993099B002B00D16BE7099B16A9A7
:1073D000083318000B93FDF7BBFA002840D0099B37
:1073E0001B68EEE70995A3E66B4616A99B8D0791EE
:1073F0003749039306915942364B00220293229B50
:1074000009B201930A9B0591009301230999380061
:1074100004915B4231001692FDF77EFD041E00D000
:10742000FCE6BB6EDD6C854200D1DD690C9AFE2A5C
:107430000FD899696B084C1EE41820000FF0D0FBA0
:10744000283D641AAC4200D92C00169B9C4200D304
:1074500077E60C9B0B9A5B08D3186AE60995D1E690
:1074600032000B9B23CA23C323CA23C303CA03C30B
:107470000B9B0D9A934247D00A4B0A9A9C460A48A6
:107480003FE0C046B8560200AA480200225002005F
:107490008C080000A208000050500200805002003A
:1074A000AC08000001040000FF0400000E500200C0
:1074B00089600200C50800001D500200D2080000CB
:1074C000616200000CFCFF7FB24F02001C0900004B
:1074D000A14A000000FC0F4013685900490D814289
:1074E00048D109991B0389889B0D994234D1099B86
:1074F0009B79022B04D0012309995B428B60CB60FE
:1075000008320F9B9A42E7D1099B9B880C93099BF9
:107510009B8B0E930E9A0C9B934200D25FE7099BC4
:10752000DB7F002B00D15AE73900099B2031203343
:1075300018001D00FDF70CFA002804D00E9A0C9BD1
:107540009B1A099A93802A0038000B99FEF702F9DA
:107550000028D9D00400A5E69942D1D9099B013968
:1075600099809B79022BCBD1099B9B6A013B09999E
:107570008B62C5E76145C3D109991B0389889B0DBF
:107580009942BDD3099B013199809B79022BB7D1D8
:10759000099B9B6A0133EAE7F0B505000F00A1B033
:1075A000866A06920793002E61D13A003B680493E5
:1075B0007B68059310AB13CA13C313CA13C303CA62
:1075C00003C30193079B3A0000932800069B10A970
:1075D000FFF78EFD0400B04275DB049B3800089372
:1075E000059B08A90993FDF7B3F9B04207D13B0009
:1075F00010AA43CA43C343CA43C303CA03C3022CEA
:107600002AD12A00390028004832FDF7D9FB041E90
:1076100059D1C022189BD2000493199B18A9059335
:10762000FB7D01909B18A94A1B0513430C933B005B
:1076300018330D93049B28000893059B08AA09930F
:10764000012300930CABFFF753FD041E3BDB20220C
:1076500018A910A815F076F800230693012C00D184
:1076600099E00024069BA3422DD003342BE0300088
:107670000830B84201D1366895E73900FDF768F95E
:107680000028F8D1B379012BF5D18022336B520356
:107690001342F0D0AB6EF26A9B6A9A42EBD9736BDD
:1076A0003100F363EB6E28002B66FFF7C5F8041E6C
:1076B00009D1336B864A3100134028003363FFF74A
:1076C0008DFA041ED7D0200021B0F0BD210008A8FB
:1076D0000831FDF73DF9002801D1A760E660A379E4
:1076E000022B08D1210008A82C31FDF731F9002820
:1076F00001D1E762266324686BE001212800FEF7D0
:1077000039F9280018A93030FDF756F9714E3A00C2
:1077100000281AD02B6B704A1B039E0D6F4B7049CB
:107720000293199B6F4800930196189B14F0ACF9D3
:107730002B6B6D4A6C6313402B633B033A00AC63C5
:107740009B0D9E4201D2694BFA18189B6149049324
:107750000A93199B05930B9300238E4202D0644B2E
:10776000B60233430C9300230D93019302330E9220
:107770000093280010AE0CAB0AAA18A90F96FFF7C9
:10778000B7FC041E9FDB012848D12022300018A935
:1077900014F0D8FF0694514B51490393119B554A5D
:1077A0000293109B54480193059B0093049B14F093
:1077B0006BF92900049B20310893059B08A80993C5
:1077C000FDF7C6F8109F119E002801D12F626E624E
:1077D000AC6A049B0893059B0993002C00D075E7C5
:1077E000280018AA08A9FEF777FE0700A04284DA4D
:1077F000831C69D12600280018AA08A9FFF7D4FA2B
:10780000041E0DD0831C00D05DE7023700D128E7AD
:107810003A4B3B4A32483B4912F06EFC0126EAE7FC
:107820002B6B9B05834203D028007142FEF7A2F820
:10783000280018A93030FDF7BFF8264E3400002884
:1078400014D02C6B254B24030293199BA40D2E4AB4
:1078500000932349189B2348019414F015F92B6BCE
:10786000214A13402B6300236B63AB63189B049383
:10787000199B05930023B44202D01D4BA40223435D
:107880000022C0210D920C9318AEF37DC9005B1845
:107890000E491B050B430E93049B01920893059B15
:1078A0003100099302232800009310AF0CAB08AA03
:1078B0000F97FFF71DFC041E00DA04E720223100B9
:1078C000380014F03FFFC9E60400FCE608FC0F0096
:1078D000FFFFEFFFFF030000D6090000B8560200CB
:1078E000AA480200E7500200FF03008000FCFFFFEF
:1078F0000000F04FA9090000AB5002002A5102001D
:10790000DB600200F90900000A0A0000F0B5036B11
:10791000A9B0040009919B0500D187E0002710ADB4
:107920001C220021280014F001FD0123EB75EB61FE
:107930000023059316A8FDF700F8002804D0059B46
:10794000002B69D00027EBE718AE3100200016AA03
:10795000FDF700FF00280DD1EB7D834200D07BE0D6
:10796000200020AA16A9FEF7B7FD002860DA831CC4
:1079700000D177E029B0F0BD8A4202D10B98834252
:107980006AD04B4E4B48089603960B9E0790019188
:10799000009207994848494A029614F075F8200069
:1079A00010A93030FDF708F8002815D10026002373
:1079B0000D93434B0C960E930AAB0F9302230CAA24
:1079C00010A92000FFF7E8FD0028D3DB033843426D
:1079D0005841059B0343ACE7266B3A4A33039B0DA2
:1079E0000693089B38480293069B07990193119BC5
:1079F0000093109B14F048F8236B344A1340236320
:107A00000023069A6363A363314B9A42CED0314B75
:107A10001E40314B1E43CAE7012F01D001277FE7EB
:107A2000216B2000494249B2FDF7A4FF0020A1E7E5
:107A3000002F11D10AAB0093284A030020A920008F
:107A4000FDF7B2F9002895DB0A99169B179A99421F
:107A500092D10B98824294D12022280018A914F0C8
:107A600071FE67E7002FF7D0099B002BF4D0104B75
:107A700010490193EB691A4A00931A48AB6914F054
:107A800003F82200310020004832FDF799F9002860
:107A900000D06FE7C022F37DD2009B18124A1B056D
:107AA00013430C931EAB0D93290001230CAA88E706
:107AB000B8560200AA4802004F510200A913000064
:107AC00008FC0F60B413000093510200FF03008014
:107AD000FF03000000FC0F000000F04F00FCFF7FE0
